:100000000C9434000C9451000C9451000C94510049
:100010000C9451000C9451000C9451000C9451001C
:100020000C9451000C9451000C9451000C9451000C
:100030000C9451000C9451000C9451000C945100FC
:100040000C9451000C9451000C9451000C945100EC
:100050000C9451000C9451000C9451000C945100DC
:100060000C9451000C94510011241FBECFEFD8E026
:10007000DEBFCDBF11E0A0E0B1E0E4E3FEE002C0EE
:1000800005900D92A43BB107D9F722E0A4EBB1E0B3
:1000900001C01D92A833B207E1F70E948F050C94AE
:1000A00018070C94000008959091C00095FFFCCFB4
:1000B0008093C60008958091C00087FF08958091C5
:1000C000C600F9CF0E945B008091C00087FFFCCF83
:1000D0008091C60008958091C000811108C02091D0
:1000E000C00081E090E0211104C080E0089581E02B
:1000F00090E008958091B60190E008959091B40148
:100100002EE330E0A901491B5109CA0108958091ED
:10011000C00087FF08958091C600F9CF9B01AC0114
:1001200084E0220F331F441F551F8A95D1F760E0EA
:1001300074E284EF90E00E94C105BA01A901415028
:10014000510961097109BB2777FDBA95A72F962F31
:10015000852F8093C5004093C400E1ECF0E08081DE
:10016000886180838EE08093C20008951092C10060
:100170000895CF93DF93482FE091B601F0E0C0914E
:10018000B701D0E030E020E02E173F0728F090E0E4
:1001900080E0DF91CF910895CE01820F931FBF01C0
:1001A0000E94AD05DC01A854BE4F8C91841719F054
:1001B0002F5F3F4FE9CF81E090E0EBCF1F93CF93CC
:1001C000DF93482F162FE091B601F0E0C091B70100
:1001D000D0E030E020E02E173F0730F090E080E0E4
:1001E000DF91CF911F910895CE01820F931FBF0120
:1001F0000E94AD05DC01A854BE4F8C91811771F3AC
:10020000841719F02F5F3F4FE6CF81E090E0E8CFF1
:100210008091C00085FFFCCF089560E070E0CB01C5
:1002200008950895E091B701F0E0E854FE4F808111
:1002300008950F931F93CF93DF938C01D0E0C0E01C
:10024000F80101900020E9F73197E01BF10BCE1780
:10025000DF0728F0DF91CF911F910F910895F801EA
:10026000EC0FFD1F80810E9454002196E9CF0C9471
:1002700054000E9419018AE00C945400CF92DF923E
:10028000EF92FF920F931F93CF93DF93CDB7DEB71B
:10029000C456D1090FB6F894DEBF0FBECDBFCE0154
:1002A00001967C0110E000E06C010E946200F70101
:1002B00081937F010F5F1F4F8D30B9F780E20436C5
:1002C0001105C4F0A6961FAEA697C6010E9439017B
:1002D00090E080E0CC59DF4F0FB6F894DEBF0FBE40
:1002E000CDBFDF91CF911F910F91FF90EF90DF90E5
:1002F000CF900895F601E00FF11F80830F5F1F4F2D
:10030000DECFE091B701F0E0E854FE4F8081089520
:100310002091B60130E06217730714F4CB01089501
:10032000C9010895089508950895089508951092B3
:10033000B90088E48093B8000895CF9394EA90932D
:10034000BC009091BC0097FFFCCF9091B900987FC2
:10035000983011F09031D9F48093BB0084E88093F9
:10036000BC008091BC0087FFFCCFC091B900C87F62
:10037000C03249F488E091E00E94390181E0C03444
:1003800021F0CF910895C831C9F780E0FACF81E01C
:10039000F8CF0F931F93CF93DF93C82FD4EA14E8BD
:1003A00004E9D093BC008091BC0087FFFCCF809112
:1003B000B900887F883011F0803199F7C093BB0075
:1003C0001093BC008091BC0087FFFCCF8091B900E6
:1003D000887F803211F0883559F48BE391E00E94D8
:1003E00019010093BC008091BC0084FDFCCFD9CFE3
:1003F000DF91CF911F910F9108950C949D0184E995
:100400008093BC008091BC0084FDFCCF0895809354
:10041000BB0084E88093BC008091BC0087FFFCCFC8
:100420009091B900987F81E0983209F480E00895B6
:1004300084EC8093BC008091BC0087FFFCCF80914E
:10044000BB00089584E88093BC008091BC0087FFC6
:10045000FCCF8091BB00089560E875E280E090E0F9
:100460000E948E000E94970180EA0C949D01CF9318
:10047000DF9380EA0E94C90180E00E94070280E0C9
:100480000E940702D0E0C0E080E00E9407022196AF
:10049000D7FFFACF8AE491E00E943901DF91CF9132
:1004A0000C94FF011F93CF93DF93D82F192FC62FE2
:1004B00080EA0E94C901812F0E9407028D2F0E94AD
:1004C00007028C2F0E940702DF91CF911F910C949D
:1004D000FF010F931F93CF93DF93182F092FEB0189
:1004E00080EA0E94C901802F0E940702812F0E948A
:1004F0000702FE0101900020E9F78F010150110968
:10050000C017D10731F4DF91CF911F910F910C9457
:10051000FF0189910E940702F3CFCF93DF93EC0193
:1005200080EA0E94C9018D2F0E9407028C2F0E9431
:10053000070281EA0E94FD010E942202C82F0E9448
:10054000FF018C2FDF91CF910895CF92DF92EF9230
:10055000FF920F931F93CF93DF93EC018B01CB019D
:100560000E94E3056C0180EA0E94C9018D2F0E9460
:1005700007028C2F0E94070281EA0E94FD01CC2D08
:10058000DD2DF12CE12C01501109E016F1067CF073
:100590000E94220288830E94FF01C601DF91CF9151
:1005A0001F910F91FF90EF90DF90CF9008950E94E0
:1005B000180289938FEFE81AF80AE7CFFF920F939A
:1005C0001F93CF93DF93CDB7DEB72F970FB6F89475
:1005D000DEBF0FBECDBF61E090E080E00E9452021E
:1005E00060E081E090E00E94520261E082E090E0F1
:1005F0000E94520263E183E090E00E94520260ECAC
:1006000084E090E00E94520266E085E090E00E9463
:10061000520260E486E090E00E94520260E087E0CF
:1006200090E00E94520269E088E090E00E9452024D
:1006300081E089836AE671E0CE0101960E940D0790
:10064000EAE6F1E081E090E02FE631E085309105C7
:100650000CF055C04081A1E0B0E0AC0FBD1FA80F69
:10066000B91F4C93019631968B30910579F796E03E
:100670009C8780E48D879E878F8787E090E00E942B
:100680008D02182F88E090E00E948D02082E000C49
:10069000990BBE016F5F7F4F912B0E94690266E04C
:1006A00085E090E00E94520266E086E090E00E94C1
:1006B000520287E090E00E948D02F82E88E090E0E0
:1006C0000E948D02082F880F110B1F29C8010F9659
:1006D000692F87E090E00E9452026FE0600F88E08F
:1006E00090E00E9452022F960FB6F894DEBF0FBE24
:1006F000CDBFDF91CF911F910F91FF900895A1E0A1
:10070000B0E0AC0FBD1FA80FB91F2C93ABCFCF9398
:10071000DF93CDB7DEB72C970FB6F894DEBF0FBED0
:10072000CDBF86E0FE013796DE01119601900D9255
:100730008A95E1F729813A814B815C816D817E81C7
:1007400080E090E02C960FB6F894DEBF0FBECDBFD0
:10075000DF91CF91089585E090E00E948D0286E0C0
:1007600090E00C948D02CF92DF92EF92FF920F9364
:100770001F93CF93DF936C017B0185E090E00E9493
:100780008D02182F86E090E00E948D02C82F880FFE
:10079000DD0BD12B8E010C151D05B0F4CE018E0D95
:1007A0009F1D692F85E090E00E9452026C2F6E0D14
:1007B00086E090E0DF91CF911F910F91FF90EF9035
:1007C000DF90CF900C945202C8010E948D02682FD6
:1007D000C8018E0D9F1D0E94520201501109DBCFEE
:1007E0004F925F926F927F928F929F92AF92BF9241
:1007F000CF92DF92EF92FF920F931F93CF93DF93ED
:10080000CDB7DEB76B970FB6F894DEBF0FBECDBF86
:100810007C014B010E8B1F8B288F398F4A8F5B8F8A
:10082000A88CB98C4A8C5B8C83E090E00E948D028E
:10083000082F84E090E00E948D02002E000C110B26
:10084000102F0027080F111D87FD1A9587E090E0F3
:100850000E948D02D82E88E090E00E948D02682EC2
:10086000880F77087D28F70101900020E9F731977C
:100870006F01CE18DF0882E08983B701CE010196AF
:100880000E940D0781E090E02FE631E0C816D906FE
:100890000CF489C0FC013197EE0DFF1D4081E1E0B1
:1008A000F0E0EC0FFD1FE80FF91F408301968B303D
:1008B000910561F7902F812F9D878C87C801029643
:1008C0009E8782E0800F8F8787E090E00E948D02F4
:1008D000D82E88E090E00E948D02082E000C990B23
:1008E000BE016F5F7F4F9D290E9469028FE0680EF5
:1008F000711C672D87E090E00E945202672D88E00E
:1009000090E00E945202B401C8010E9469020D5F8A
:100910001F4F612F83E090E00E945202612F84E01C
:1009200090E00E94520285E090E00E948D0286E0F5
:1009300090E00E948D0262E070E0C5010E94B30366
:10094000B701C5010E946902B98EA88E82E0480EE7
:10095000511C5B8E4A8E86E0FE017696DE01509633
:1009600001900D928A95E1F7288939894A895B8936
:100970006C897D8980E090E06B960FB6F894DEBFBD
:100980000FBECDBFDF91CF911F910F91FF90EF90E0
:10099000DF90CF90BF90AF909F908F907F906F909F
:1009A0005F904F900895E1E0F0E0EC0FFD1FE80F3D
:1009B000F91F20837BCFCF93DF93CDB7DEB72C9782
:1009C0000FB6F894DEBF0FBECDBF4F83588769873F
:1009D0007A878B879C8786E0FE013796DE01119629
:1009E00001900D928A95E1F729813A814B815C81D2
:1009F0006D817E8180E090E02C960FB6F894DEBF8A
:100A00000FBECDBFDF91CF910895CF93DF93CDB7C8
:100A1000DEB768970FB6F894DEBF0FBECDBF4B8B25
:100A20005C8B6D8B7E8B8F8B988F86E0FE0173962F
:100A3000DE01179601900D928A95E1F786E0FE019E
:100A40003796DE01119601900D928A95E1F786E0C6
:100A5000FE013196DE011D9601900D928A95E1F717
:100A60002D853E854F85588969897A8980E090E097
:100A700068960FB6F894DEBF0FBECDBFDF91CF9161
:100A80000895CF93DF93CDB7DEB768970FB6F8948C
:100A9000DEBF0FBECDBF4B8B5C8B6D8B7E8B8F8B88
:100AA000988F86E0FE017396DE01179601900D92F5
:100AB0008A95E1F786E0FE013796DE0111960190F6
:100AC0000D928A95E1F786E0FE013196DE011D96D2
:100AD00001900D928A95E1F72D853E854F855889C5
:100AE00069897A8980E090E068960FB6F894DEBF55
:100AF0000FBECDBFDF91CF910895CF93DF9300D08C
:100B000000D000D0CDB7DEB780E791E026960FB6D3
:100B1000F894DEBF0FBECDBFDF91CF91089500D016
:100B200000D000D0CDB7DEB760E875E280E090E09D
:100B30000E948E000E942C020E94370290E080E00A
:100B40000E948D02811106C081E791E00E94390167
:100B50000E94DE020E943E01FDCFAA1BBB1B51E199
:100B600007C0AA1FBB1FA617B70710F0A61BB70B1D
:100B7000881F991F5A95A9F780959095BC01CD01C2
:100B80000895A1E21A2EAA1BBB1BFD010DC0AA1FCE
:100B9000BB1FEE1FFF1FA217B307E407F50720F0E6
:100BA000A21BB30BE40BF50B661F771F881F991F61
:100BB0001A9469F760957095809590959B01AC01AA
:100BC000BD01CF0108950F931F93CF93DF93823020
:100BD000910510F482E090E0E0913602F091370246
:100BE00030E020E0B0E0A0E0309799F42115310525
:100BF00009F447C0281B390B24303105C0F58A8120
:100C00009B816115710571F1FB0193838283FE0164
:100C100011C0408151810281138148175907F8F0B2
:100C20004817590799F4109761F012960C93129790
:100C300013961C933296CF01DF91CF911F910F91A4
:100C400008950093360210933702F4CF2115310531
:100C500019F04217530718F49A01BD01EF01DF01A3
:100C6000F801C2CF9093370280933602D0CFFE01B5
:100C7000E20FF31F81939193225031093983288326
:100C8000DACF2091340230913502232B41F42091A8
:100C900004013091050130933502209334022091F4
:100CA0000201309103012115310541F42DB73EB702
:100CB0004091060150910701241B350BE09134024D
:100CC000F0913502E217F307A0F42E1B3F0B281713
:100CD000390778F0AC014E5F5F4F2417350748F0B5
:100CE0004E0F5F1F509335024093340281939193CE
:100CF000A2CFF0E0E0E09FCFCF93DF930097E9F041
:100D0000FC01329713821282C0913602D0913702D1
:100D1000DE0130E020E02097A1F420813181820FB4
:100D2000931F20913402309135022817390709F0BA
:100D300067C0F0933502E0933402DF91CF910895BC
:100D4000DA01AE17BF0708F040C012964D915C91D2
:100D500013979D014115510599F7D9011396FC93FD
:100D6000EE9312974D915D91A40FB51FEA17FB0703
:100D700079F4808191810296840F951FD901119693
:100D80009C938E938281938113969C938E9312975A
:100D9000B0E0A0E08A819B810097B9F5FE018191C6
:100DA0009191E80FF91F80913402909135028E17CE
:100DB0009F0719F6109761F51092370210923602CC
:100DC000D0933502C0933402B8CFB383A28340815D
:100DD0005181840F951FA817B90771F44E5F5F4FBB
:100DE0008D919C911197480F591F51834083129602
:100DF0008D919C91938382832115310509F0ADCFAC
:100E0000F0933702E093360298CFDE01EC01C2CFB7
:100E100013961C921E921297D3CFFB01DC010D900A
:100E20000020E9F7119701900D920020E1F7089555
:040E3000F894FFCF64
:100E3400FFFF000038022000534C41205720736507
:100E44006E742C204E6F742061636B207265636531
:100E5400697665642C20636865636B2064657669D4
:100E640063652061646472657373004465766963C5
:100E740065206973206275737900416C6C206D651F
:100E84006D6F727920636F6E74656E747320736511
:100E94007420746F207A65726F00726F6F74002013
:100EA4000046696C652053797374656D206E6F74A8
:100EB40020696E697469616C697A65642C20496E75
:100EC4007469616C697A696E672046696C65205340
:100ED400797374656D2066726F6D207363726174CB
:040EE400636800003F
:00000001FF
