:100000000C9434000C9451000C9451000C94510049
:100010000C9451000C9451000C9451000C9451001C
:100020000C9451000C9451000C9451000C9451000C
:100030000C9451000C9451000C9451000C945100FC
:100040000C9451000C9451000C9451000C945100EC
:100050000C9451000C9451000C9451000C945100DC
:100060000C9451000C94510011241FBECFEFD8E026
:10007000DEBFCDBF11E0A0E0B1E0E0EFF4E002C0F0
:1000800005900D92A638B107D9F722E0A6E8B1E0B5
:1000900001C01D92A630B207E1F70E94E0010C9466
:1000A00076020C94000008959091C00095FFFCCF5B
:1000B0008093C60008958091C00087FF08958091C5
:1000C000C600F9CF0E945B008091C00087FFFCCF83
:1000D0008091C60008958091C000811108C02091D0
:1000E000C00081E090E0211104C080E0089581E02B
:1000F00090E008958091880190E0089590918601A4
:100100002EE330E0A901491B5109CA0108959B0162
:10011000AC0184E0220F331F441F551F8A95D1F78D
:1001200060E074E284EF90E00E945402BA01A901F9
:100130004150510961097109BB2777FDBA95A72F75
:10014000962F852F8093C5004093C400E1ECF0E02A
:100150008081886180838EE08093C2000895109230
:10016000C1000895CF93DF93482FE0918801F0E01C
:10017000C0918901D0E030E020E02E173F0728F041
:1001800090E080E0DF91CF910895CE01820F931F20
:10019000BF010E944002DC01A657BE4F8C9184171C
:1001A00019F02F5F3F4FE9CF81E090E0EBCF1F9335
:1001B000CF93DF93482F162FE0918801F0E0C09194
:1001C0008901D0E030E020E02E173F0730F090E0CA
:1001D00080E0DF91CF911F910895CE01820F931F90
:1001E000BF010E944002DC01A657BE4F8C918117CF
:1001F00071F3841719F02F5F3F4FE6CF81E090E055
:10020000E8CF8091C00085FFFCCF089560E070E0EA
:10021000CB0108950895E0918901F0E0E657FE4F83
:10022000808108950F931F93CF93DF938C01D0E0CB
:10023000C0E0F80101900020E9F73197E01BF10BD5
:10024000CE17DF0728F0DF91CF911F910F9108950E
:10025000F801EC0FFD1F80810E9454002196E9CF28
:100260000E9412018AE00C945400E0918901F0E0B0
:10027000E657FE4F808108952091880130E0621793
:10028000730714F4CB010895C901089508950895E2
:100290000895089508951092B90088E48093B800F5
:1002A0000895CF9394EA9093BC009091BC0097FF7F
:1002B000FCCF9091B900987F983011F09031D9F42B
:1002C0008093BB0084E88093BC008091BC0087FFD2
:1002D000FCCFC091B900C87FC03249F482E091E000
:1002E0000E94300181E0C03421F0CF910895C831DF
:1002F000C9F780E0FACF81E0F8CF0F931F93CF9337
:10030000DF93C82FD4EA14E804E9D093BC008091AD
:10031000BC0087FFFCCF8091B900887F883011F046
:10032000803199F7C093BB001093BC008091BC0052
:1003300087FFFCCF8091B900887F803211F088352B
:1003400059F485E391E00E9412010093BC00809172
:10035000BC0084FDFCCFD9CFDF91CF911F910F91CD
:1003600008950C94510184E98093BC008091BC00F5
:1003700084FDFCCF08958093BB0084E88093BC008B
:100380008091BC0087FFFCCF9091B900987F81E0FD
:10039000983209F480E0089584EC8093BC00809149
:1003A000BC0087FFFCCF8091BB00089584E8809358
:1003B000BC008091BC0087FFFCCF8091BB000895FA
:1003C00060E875E280E090E00E9487000E944B01A7
:1003D00080EA0E945101882341F084E491E00E9468
:1003E00030010E94B30115B8FFCF84E691E00E946E
:1003F000300185E00E94BB0185E70E94BB0184E7D4
:1004000091E00E9412010E94B30180EA0E947D01E6
:1004100085E00E94BB0181EA0E94B1010E94D601E1
:10042000C82F0E94B301C095C5B980EA0E947D0122
:1004300080E00E94BB0180E70E94BB0181E70E942F
:10044000BB0182E70E94BB0184E70E94BB010E94BE
:10045000B30180EA0E947D0180E00E94BB0181EA35
:100460000E94B1010E94CC010E94CC010E94CC01EB
:100470000E94D601C82F0E94B301C095C5B9B4CF60
:10048000AA1BBB1B51E107C0AA1FBB1FA617B707BA
:1004900010F0A61BB70B881F991F5A95A9F78095D6
:1004A0009095BC01CD010895A1E21A2EAA1BBB1B99
:1004B000FD010DC0AA1FBB1FEE1FFF1FA217B30730
:1004C000E407F50720F0A21BB30BE40BF50B661F46
:1004D000771F881F991F1A9469F76095709580950A
:1004E00090959B01AC01BD01CF010895F894FFCF19
:1004F000FFFF534C4120572073656E742C204E6FC4
:10050000742061636B2072656365697665642C2075
:10051000636865636B206465766963652061646404
:100520007265737300446576696365206973206240
:10053000757379004661696C656420746F20697316
:1005400073756520737461727420636F6E6469746F
:10055000696F6E0057726974696E6720746F204608
:1005600052414D0057726974696E6720636F6D70F8
:060570006C657465640077
:00000001FF
