:100000000C9434000C9451000C9451000C94510049
:100010000C9451000C9451000C9451000C9451001C
:100020000C9451000C9451000C9451000C9451000C
:100030000C9451000C9451000C9451000C945100FC
:100040000C9451000C9451000C9451000C945100EC
:100050000C9451000C9451000C9451000C945100DC
:100060000C9451000C94510011241FBECFEFD8E026
:10007000DEBFCDBF11E0A0E0B1E0ECE4F8E002C0EB
:1000800005900D92A23BB107D9F722E0A2EBB1E0B7
:1000900001C01D92A633B207E1F70E949D020C94A5
:1000A00024040C94000008959091C00095FFFCCFAB
:1000B0008093C60008958091C00087FF08958091C5
:1000C000C600F9CF0E945B008091C00087FFFCCF83
:1000D0008091C60008958091C000811108C02091D0
:1000E000C00081E090E0211104C080E0089581E02B
:1000F00090E008958091B40190E008959091B2014C
:100100002EE330E0A901491B5109CA0108958091ED
:10011000C00087FF08958091C600F9CF9B01AC0114
:1001200084E0220F331F441F551F8A95D1F760E0EA
:1001300074E284EF90E00E94D802BA01A901415014
:10014000510961097109BB2777FDBA95A72F962F31
:10015000852F8093C5004093C400E1ECF0E08081DE
:10016000886180838EE08093C20008951092C10060
:100170000895CF93DF93482FE091B401F0E0C09150
:10018000B501D0E030E020E02E173F0728F090E0E6
:1001900080E0DF91CF910895CE01820F931FBF01C0
:1001A0000E94C402DC01AA54BE4F8C91841719F03E
:1001B0002F5F3F4FE9CF81E090E0EBCF1F93CF93CC
:1001C000DF93482F162FE091B401F0E0C091B50104
:1001D000D0E030E020E02E173F0730F090E080E0E4
:1001E000DF91CF911F910895CE01820F931FBF0120
:1001F0000E94C402DC01AA54BE4F8C91811771F396
:10020000841719F02F5F3F4FE6CF81E090E0E8CFF1
:100210008091C00085FFFCCF089560E070E0CB01C5
:1002200008950895E091B501F0E0EA54FE4F808111
:1002300008950F931F93CF93DF938C01D0E0C0E01C
:10024000F80101900020E9F73197E01BF10BCE1780
:10025000DF0728F0DF91CF911F910F910895F801EA
:10026000EC0FFD1F80810E9454002196E9CF0C9471
:1002700054000E9419018AE00C945400E091B501E9
:10028000F0E0EA54FE4F808108952091B40130E0FF
:100290006217730714F4CB010895C90108950895F6
:1002A00008950895089508951092B90088E4809300
:1002B000B8000895CF9394EA9093BC009091BC004D
:1002C00097FFFCCF9091B900987F983011F0903152
:1002D000D9F48093BB0084E88093BC008091BC007B
:1002E00087FFFCCFC091B900C87FC03249F488E0D5
:1002F00091E00E94390181E0C03421F0CF9108954E
:10030000C831C9F780E0FACF81E0F8CF0F931F938F
:10031000CF93DF93C82FD4EA14E804E9D093BC004C
:100320008091BC0087FFFCCF8091B900887F883026
:1003300011F0803199F7C093BB001093BC008091FD
:10034000BC0087FFFCCF8091B900887F803211F01C
:10035000883559F48BE391E00E9419010093BC00A9
:100360008091BC0084FDFCCFD9CFDF91CF911F914C
:100370000F9108950C945A0184E98093BC008091F8
:10038000BC0084FDFCCF08958093BB0084E880937B
:10039000BC008091BC0087FFFCCF9091B900987F92
:1003A00081E0983209F480E0089584EC8093BC00E9
:1003B0008091BC0087FFFCCF8091BB00089584E84A
:1003C0008093BC008091BC0087FFFCCF8091BB0074
:1003D0000895CF93DF9380EA0E94860180E00E9417
:1003E000C40180E00E94C401D0E0C0E080E00E942F
:1003F000C4012196D7FFFACF8AE491E00E94390127
:10040000DF91CF910C94BC0160E875E280E090E050
:100410000E948E000E94540180EA0E945A010C94AE
:10042000E9011F93CF93DF93D82F192FC62F80EAAE
:100430000E948601812F0E94C4018D2F0E94C40159
:100440008C2F0E94C401DF91CF911F910C94BC01AD
:100450000F931F93CF93DF93182F092FEB0180EA9F
:100460000E948601802F0E94C401812F0E94C40136
:10047000FE0101900020E9F78F0101501109C0171A
:10048000D10731F4DF91CF911F910F910C94BC01F2
:1004900089910E94C401F3CFCF93DF93EC0180EAEE
:1004A0000E9486018D2F0E94C4018C2F0E94C401DE
:1004B00081EA0E94BA010E94DF01C82F0E94BC019C
:1004C0008C2FDF91CF910895CF92DF92EF92FF9220
:1004D0000F931F93CF93DF93EC018B01CB010E940D
:1004E000FA026C0180EA0E9486018D2F0E94C401ED
:1004F0008C2F0E94C40181EA0E94BA01CC2DDD2D0F
:10050000F12CE12C01501109E016F1067CF00E945B
:10051000DF0188830E94BC01C601DF91CF911F914A
:100520000F91FF90EF90DF90CF9008950E94D5013A
:1005300089938FEFE81AF80AE7CF60E875E280E068
:1005400090E00E948E000E9404028AE691E00E94E0
:10055000390161E871E080E290E00E94280280E2C7
:1005600090E00E944C0265E070E080E290E00E9422
:1005700064020E94390187E891E00E94390188E90C
:1005800091E00E943901FFCFAA1BBB1B51E107C0BC
:10059000AA1FBB1FA617B70710F0A61BB70B881F13
:1005A000991F5A95A9F780959095BC01CD010895A2
:1005B000A1E21A2EAA1BBB1BFD010DC0AA1FBB1F67
:1005C000EE1FFF1FA217B307E407F50720F0A21BD9
:1005D000B30BE40BF50B661F771F881F991F1A9446
:1005E00069F760957095809590959B01AC01BD0170
:1005F000CF0108950F931F93CF93DF93823091051E
:1006000010F482E090E0E0913402F091350230E0A5
:1006100020E0B0E0A0E0309799F42115310509F40D
:1006200047C0281B390B24303105C0F58A819B81D6
:100630006115710571F1FB0193838283FE0111C085
:10064000408151810281138148175907F8F04817FA
:10065000590799F4109761F012960C93129713961C
:100660001C933296CF01DF91CF911F910F91089586
:100670000093340210933502F4CF2115310519F09F
:100680004217530718F49A01BD01EF01DF01F80189
:10069000C2CF9093350280933402D0CFFE01E20F97
:1006A000F31F819391932250310939832883DACF44
:1006B0002091320230913302232B41F42091040126
:1006C00030910501309333022093320220910201D0
:1006D000309103012115310541F42DB73EB740910A
:1006E000060150910701241B350BE0913202F09175
:1006F0003302E217F307A0F42E1B3F0B281739072C
:1007000078F0AC014E5F5F4F2417350748F04E0F6D
:100710005F1F509333024093320281939193A2CF93
:10072000F0E0E0E09FCFCF93DF930097E9F0FC018A
:10073000329713821282C0913402D0913502DE01C9
:1007400030E020E02097A1F420813181820F931FB7
:1007500020913202309133022817390709F067C01F
:10076000F0933302E0933202DF91CF910895DA01E2
:10077000AE17BF0708F040C012964D915C911397D9
:100780009D014115510599F7D9011396FC93EE93FC
:1007900012974D915D91A40FB51FEA17FB0779F4ED
:1007A000808191810296840F951FD90111969C93A7
:1007B0008E938281938113969C938E931297B0E0CF
:1007C000A0E08A819B810097B9F5FE01819191910A
:1007D000E80FF91F80913202909133028E179F0724
:1007E00019F6109761F51092350210923402D093E9
:1007F0003302C0933202B8CFB383A28340815181C8
:10080000840F951FA817B90771F44E5F5F4F8D9144
:100810009C911197480F591F5183408312968D91D7
:100820009C91938382832115310509F0ADCFF0931C
:100830003502E093340298CFDE01EC01C2CF13966B
:0C0840001C921E921297D3CFF894FFCFA9
:10084C00FFFF000036022000534C412057207365F7
:10085C006E742C204E6F742061636B20726563651F
:10086C00697665642C20636865636B2064657669C2
:10087C0063652061646472657373004465766963B3
:10088C0065206973206275737900416C6C206D650D
:10089C006D6F727920636F6E74656E7473207365FF
:1008AC007420746F207A65726F0057726974696E68
:1008BC006720746F20616464726573732033323AFD
:1008CC0020616263646500577269746520636F6DA3
:1008DC00706C6574652020004652414D206F706528
:1008EC00726174696F6E7320636F6D706C65746583
:0208FC000000FA
:00000001FF
